:1000000009C017C015C014C013C012C011C010C061
:100010000FC00EC011241FBECFE9CDBF20E0A0E667
:10002000B0E001C01D92A436B207E1F71DD057C061
:10003000E7CF1F921FB61F921124109260001092FA
:10004000610010926200109263001F901FBE1F900B
:100050001895C49ABC9AC49A85B7816085BF8BB73E
:1000600080648BBF78940895F4DF2FE789EA93E0EA
:10007000215080409040E1F700C000008091600076
:1000800090916100A0916200B09163000196A11D62
:10009000B11D8093600090936100A0936200B093C3
:1000A00063008091600090916100A0916200B09126
:1000B000630088359240A105B105B8F21092600046
:1000C000109261001092620010926300C49887EB56
:1000D0009BE00197F1F700C00000C49AC6CFF894E6
:0200E000FFCF50
:00000001FF
